{
  "contractName": "Patient",
  "abi": [
    {
      "constant": true,
      "inputs": [],
      "name": "patientCount",
      "outputs": [
        {
          "name": "",
          "type": "uint256"
        }
      ],
      "payable": false,
      "stateMutability": "view",
      "type": "function"
    },
    {
      "constant": false,
      "inputs": [
        {
          "name": "_name",
          "type": "string"
        },
        {
          "name": "_age",
          "type": "uint256"
        },
        {
          "name": "_gender",
          "type": "string"
        }
      ],
      "name": "set",
      "outputs": [],
      "payable": false,
      "stateMutability": "nonpayable",
      "type": "function"
    },
    {
      "constant": true,
      "inputs": [],
      "name": "get",
      "outputs": [
        {
          "name": "",
          "type": "string"
        },
        {
          "name": "",
          "type": "uint256"
        },
        {
          "name": "",
          "type": "string"
        }
      ],
      "payable": false,
      "stateMutability": "view",
      "type": "function"
    }
  ],
  "bytecode": "0x60806040526000805534801561001457600080fd5b506104cf806100246000396000f3fe608060405234801561001057600080fd5b50600436106100415760003560e01c80636d4ce63c14610046578063a0303c4114610133578063dab8e1331461014d575b600080fd5b61004e610284565b604051808060200184815260200180602001838103835286818151815260200191508051906020019080838360005b8381101561009557818101518382015260200161007d565b50505050905090810190601f1680156100c25780820380516001836020036101000a031916815260200191505b50838103825284518152845160209182019186019080838360005b838110156100f55781810151838201526020016100dd565b50505050905090810190601f1680156101225780820380516001836020036101000a031916815260200191505b509550505050505060405180910390f35b61013b6103c6565b60408051918252519081900360200190f35b6102826004803603606081101561016357600080fd5b81019060208101813564010000000081111561017e57600080fd5b82018360208201111561019057600080fd5b803590602001918460018302840111640100000000831117156101b257600080fd5b91908080601f0160208091040260200160405190810160405280939291908181526020018383808284376000920191909152509295843595909490935060408101925060200135905064010000000081111561020d57600080fd5b82018360208201111561021f57600080fd5b8035906020019184600183028401116401000000008311171561024157600080fd5b91908080601f0160208091040260200160405190810160405280939291908181526020018383808284376000920191909152509295506103cc945050505050565b005b60606000606060016002546003828054600181600116156101000203166002900480601f0160208091040260200160405190810160405280929190818152602001828054600181600116156101000203166002900480156103265780601f106102fb57610100808354040283529160200191610326565b820191906000526020600020905b81548152906001019060200180831161030957829003601f168201915b5050845460408051602060026001851615610100026000190190941693909304601f8101849004840282018401909252818152959850869450925084019050828280156103b45780601f10610389576101008083540402835291602001916103b4565b820191906000526020600020905b81548152906001019060200180831161039757829003601f168201915b50505050509050925092509250909192565b60005481565b60008054600190810190915583516103e991906020860190610408565b5060028290558051610402906003906020840190610408565b50505050565b828054600181600116156101000203166002900490600052602060002090601f016020900481019282601f1061044957805160ff1916838001178555610476565b82800160010185558215610476579182015b8281111561047657825182559160200191906001019061045b565b50610482929150610486565b5090565b6104a091905b80821115610482576000815560010161048c565b9056fea165627a7a72305820a3aa1938bfc75ff16ea6ca108daf7a4c5ea0cf49c1fd592d0b381247e708dcab0029",
  "source": "pragma solidity ^0.5.0;\n\ncontract Patient{\n    uint public patientCount = 0;\n    string name;\n    uint age;\n    string gender;\n//    modifier checkLevel(uint _age){\n//        require(\n//            _age>0,\n//            \"Invalid age\"\n//            );\n//            _;\n//    }\n    function set(string memory _name, uint _age, string memory _gender) public {\n        patientCount++;\n        name = _name;\n        age = _age;\n        gender = _gender;\n        // patients[msg.sender].name=_name;\n    }\n    function get() public view returns(string memory, uint, string memory){\n    return (name, age, gender) ;\n    }\n}",
  "sourcePath": "/Users/sachinchandwani/Desktop/BE/contracts/Patient.sol",
  "compiler": {
    "name": "solc",
    "version": "0.5.8+commit.23d335f2.Emscripten.clang"
  },
  "schemaVersion": "3.0.16",
  "updatedAt": "2019-10-14T07:58:10.905Z",
  "devdoc": {
    "methods": {}
  },
  "userdoc": {
    "methods": {}
  }
}