{
  "contractName": "Patient",
  "abi": [
    {
      "constant": true,
      "inputs": [
        {
          "name": "",
          "type": "uint256"
        }
      ],
      "name": "patients",
      "outputs": [
        {
          "name": "name",
          "type": "string"
        },
        {
          "name": "age",
          "type": "uint256"
        },
        {
          "name": "gender",
          "type": "string"
        }
      ],
      "payable": false,
      "stateMutability": "view",
      "type": "function"
    },
    {
      "constant": true,
      "inputs": [],
      "name": "patientCount",
      "outputs": [
        {
          "name": "",
          "type": "uint256"
        }
      ],
      "payable": false,
      "stateMutability": "view",
      "type": "function"
    },
    {
      "inputs": [],
      "payable": false,
      "stateMutability": "nonpayable",
      "type": "constructor"
    },
    {
      "constant": false,
      "inputs": [
        {
          "name": "_name",
          "type": "string"
        },
        {
          "name": "_age",
          "type": "uint256"
        },
        {
          "name": "_gender",
          "type": "string"
        }
      ],
      "name": "set",
      "outputs": [],
      "payable": false,
      "stateMutability": "nonpayable",
      "type": "function"
    },
    {
      "constant": true,
      "inputs": [],
      "name": "get",
      "outputs": [
        {
          "name": "",
          "type": "uint256"
        }
      ],
      "payable": false,
      "stateMutability": "view",
      "type": "function"
    }
  ],
  "bytecode": "0x60806040526000805534801561001457600080fd5b506100916040518060400160405280600681526020017f53616368696e000000000000000000000000000000000000000000000000000081525060146040518060400160405280600481526020017f4d616c650000000000000000000000000000000000000000000000000000000081525061009660201b60201c565b6101a1565b60008054600190810180835560408051606081018252878152602080820188905281830187905292855292825290922081518051929391926100db9284920190610106565b506020828101516001830155604083015180516100fe9260028501920190610106565b505050505050565b828054600181600116156101000203166002900490600052602060002090601f016020900481019282601f1061014757805160ff1916838001178555610174565b82800160010185558215610174579182015b82811115610174578251825591602001919060010190610159565b50610180929150610184565b5090565b61019e91905b80821115610180576000815560010161018a565b90565b61052d806101b06000396000f3fe608060405234801561001057600080fd5b506004361061004c5760003560e01c80636d4ce63c1461005157806393119a831461006b578063a0303c411461016d578063dab8e13314610175575b600080fd5b6100596102ac565b60408051918252519081900360200190f35b6100886004803603602081101561008157600080fd5b50356102b3565b604051808060200184815260200180602001838103835286818151815260200191508051906020019080838360005b838110156100cf5781810151838201526020016100b7565b50505050905090810190601f1680156100fc5780820380516001836020036101000a031916815260200191505b50838103825284518152845160209182019186019080838360005b8381101561012f578181015183820152602001610117565b50505050905090810190601f16801561015c5780820380516001836020036101000a031916815260200191505b509550505050505060405180910390f35b6100596103f3565b6102aa6004803603606081101561018b57600080fd5b8101906020810181356401000000008111156101a657600080fd5b8201836020820111156101b857600080fd5b803590602001918460018302840111640100000000831117156101da57600080fd5b91908080601f0160208091040260200160405190810160405280939291908181526020018383808284376000920191909152509295843595909490935060408101925060200135905064010000000081111561023557600080fd5b82018360208201111561024757600080fd5b8035906020019184600183028401116401000000008311171561026957600080fd5b91908080601f0160208091040260200160405190810160405280939291908181526020018383808284376000920191909152509295506103f9945050505050565b005b6000545b90565b60016020818152600092835260409283902080548451600294821615610100026000190190911693909304601f81018390048302840183019094528383529283918301828280156103455780601f1061031a57610100808354040283529160200191610345565b820191906000526020600020905b81548152906001019060200180831161032857829003601f168201915b505050505090806001015490806002018054600181600116156101000203166002900480601f0160208091040260200160405190810160405280929190818152602001828054600181600116156101000203166002900480156103e95780601f106103be576101008083540402835291602001916103e9565b820191906000526020600020905b8154815290600101906020018083116103cc57829003601f168201915b5050505050905083565b60005481565b600080546001908101808355604080516060810182528781526020808201889052818301879052928552928252909220815180519293919261043e9284920190610469565b506020828101516001830155604083015180516104619260028501920190610469565b505050505050565b828054600181600116156101000203166002900490600052602060002090601f016020900481019282601f106104aa57805160ff19168380011785556104d7565b828001600101855582156104d7579182015b828111156104d75782518255916020019190600101906104bc565b506104e39291506104e7565b5090565b6102b091905b808211156104e357600081556001016104ed56fea165627a7a723058204fb87918e58dc0d1cc901000f6508b41e8cc4aa39fb147c331d69fe868c673ee0029",
  "source": "pragma solidity ^0.5.0;\n\ncontract Patient{\n    uint public patientCount = 0;\n    struct PatientInfo{\n        string name;\n         uint age;\n        string gender;\n    }\n    mapping(uint=>PatientInfo) public patients;\n\n    constructor() public{\n        set(\"Sachin\",20,\"Male\");\n    }\n    function set(string memory _name, uint _age, string memory _gender) public {\n        patientCount++;\n        // patients[msg.sender].name=_name;\n\n        patients[patientCount] = PatientInfo(_name,_age,_gender);\n    }\n    function get() public view returns(uint){\n    return patientCount;\n    }\n}",
  "sourcePath": "/Users/sachinchandwani/Desktop/BE/contracts/Patient.sol",
  "compiler": {
    "name": "solc",
    "version": "0.5.8+commit.23d335f2.Emscripten.clang"
  },
  "schemaVersion": "3.0.16",
  "updatedAt": "2019-10-11T21:31:23.278Z",
  "devdoc": {
    "methods": {}
  },
  "userdoc": {
    "methods": {}
  }
}